{
  "contractName": "Messaging",
  "abi": [
    {
      "inputs": [],
      "stateMutability": "nonpayable",
      "type": "constructor"
    },
    {
      "anonymous": false,
      "inputs": [
        {
          "indexed": true,
          "internalType": "address",
          "name": "sender",
          "type": "address"
        },
        {
          "indexed": false,
          "internalType": "string",
          "name": "content",
          "type": "string"
        }
      ],
      "name": "MessageSent",
      "type": "event"
    },
    {
      "anonymous": false,
      "inputs": [
        {
          "indexed": true,
          "internalType": "address",
          "name": "user",
          "type": "address"
        },
        {
          "indexed": false,
          "internalType": "uint256",
          "name": "amount",
          "type": "uint256"
        }
      ],
      "name": "UserRewarded",
      "type": "event"
    },
    {
      "inputs": [
        {
          "internalType": "uint256",
          "name": "",
          "type": "uint256"
        }
      ],
      "name": "messages",
      "outputs": [
        {
          "internalType": "address",
          "name": "sender",
          "type": "address"
        },
        {
          "internalType": "string",
          "name": "content",
          "type": "string"
        }
      ],
      "stateMutability": "view",
      "type": "function",
      "constant": true
    },
    {
      "inputs": [],
      "name": "owner",
      "outputs": [
        {
          "internalType": "address",
          "name": "",
          "type": "address"
        }
      ],
      "stateMutability": "view",
      "type": "function",
      "constant": true
    },
    {
      "inputs": [
        {
          "internalType": "string",
          "name": "_content",
          "type": "string"
        }
      ],
      "name": "sendMessage",
      "outputs": [],
      "stateMutability": "payable",
      "type": "function",
      "payable": true
    },
    {
      "inputs": [],
      "name": "getMessages",
      "outputs": [
        {
          "components": [
            {
              "internalType": "address",
              "name": "sender",
              "type": "address"
            },
            {
              "internalType": "string",
              "name": "content",
              "type": "string"
            }
          ],
          "internalType": "struct Messaging.Message[]",
          "name": "",
          "type": "tuple[]"
        }
      ],
      "stateMutability": "view",
      "type": "function",
      "constant": true
    },
    {
      "inputs": [],
      "name": "fundContract",
      "outputs": [],
      "stateMutability": "payable",
      "type": "function",
      "payable": true
    },
    {
      "inputs": [],
      "name": "withdraw",
      "outputs": [],
      "stateMutability": "nonpayable",
      "type": "function"
    }
  ],
  "bytecode": "0x608060405234801561001057600080fd5b5033600160006101000a81548173ffffffffffffffffffffffffffffffffffffffff021916908373ffffffffffffffffffffffffffffffffffffffff160217905550610e06806100616000396000f3fe6080604052600436106100555760003560e01c80630d80fefd1461005a5780633ccfd60b14610098578063469c8110146100af5780635ff6cbf3146100cb5780638da5cb5b146100f6578063bd097e2114610121575b600080fd5b34801561006657600080fd5b50610081600480360381019061007c919061081d565b61012b565b60405161008f929190610ad2565b60405180910390f35b3480156100a457600080fd5b506100ad610207565b005b6100c960048036038101906100c491906107dc565b610302565b005b3480156100d757600080fd5b506100e061050a565b6040516100ed9190610b02565b60405180910390f35b34801561010257600080fd5b5061010b610651565b6040516101189190610ab7565b60405180910390f35b610129610677565b005b6000818154811061013b57600080fd5b90600052602060002090600202016000915090508060000160009054906101000a900473ffffffffffffffffffffffffffffffffffffffff169080600101805461018490610d18565b80601f01602080910402602001604051908101604052809291908181526020018280546101b090610d18565b80156101fd5780601f106101d2576101008083540402835291602001916101fd565b820191906000526020600020905b8154815290600101906020018083116101e057829003601f168201915b5050505050905082565b600160009054906101000a900473ffffffffffffffffffffffffffffffffffffffff1673ffffffffffffffffffffffffffffffffffffffff163373ffffffffffffffffffffffffffffffffffffffff1614610297576040517f08c379a000000000000000000000000000000000000000000000000000000000815260040161028e90610b61565b60405180910390fd5b600160009054906101000a900473ffffffffffffffffffffffffffffffffffffffff1673ffffffffffffffffffffffffffffffffffffffff166108fc479081150290604051600060405180830381858888f193505050501580156102ff573d6000803e3d6000fd5b50565b600060405180604001604052803373ffffffffffffffffffffffffffffffffffffffff16815260200183815250908060018154018082558091505060019003906000526020600020906002020160009091909190915060008201518160000160006101000a81548173ffffffffffffffffffffffffffffffffffffffff021916908373ffffffffffffffffffffffffffffffffffffffff16021790555060208201518160010190805190602001906103bb9291906106bc565b5050503373ffffffffffffffffffffffffffffffffffffffff167f0d7fccda06d6eb51c23cbd16d49b9b3f3ebafb002dba1b074895cbb35d0e8130826040516104049190610b3f565b60405180910390a260028151141561050757670de0b6b3a7640000471015610461576040517f08c379a000000000000000000000000000000000000000000000000000000000815260040161045890610b81565b60405180910390fd5b3373ffffffffffffffffffffffffffffffffffffffff166108fc670de0b6b3a76400009081150290604051600060405180830381858888f193505050501580156104af573d6000803e3d6000fd5b503373ffffffffffffffffffffffffffffffffffffffff167fe366ef68d2c0620e9e4c5074fd7ad0ce6739b65287f9c2d09b7d002da556879b670de0b6b3a76400006040516104fe9190610b24565b60405180910390a25b50565b60606000805480602002602001604051908101604052809291908181526020016000905b8282101561064857838290600052602060002090600202016040518060400160405290816000820160009054906101000a900473ffffffffffffffffffffffffffffffffffffffff1673ffffffffffffffffffffffffffffffffffffffff1673ffffffffffffffffffffffffffffffffffffffff1681526020016001820180546105b790610d18565b80601f01602080910402602001604051908101604052809291908181526020018280546105e390610d18565b80156106305780601f1061060557610100808354040283529160200191610630565b820191906000526020600020905b81548152906001019060200180831161061357829003601f168201915b5050505050815250508152602001906001019061052e565b50505050905090565b600160009054906101000a900473ffffffffffffffffffffffffffffffffffffffff1681565b600034116106ba576040517f08c379a00000000000000000000000000000000000000000000000000000000081526004016106b190610ba1565b60405180910390fd5b565b8280546106c890610d18565b90600052602060002090601f0160209004810192826106ea5760008555610731565b82601f1061070357805160ff1916838001178555610731565b82800160010185558215610731579182015b82811115610730578251825591602001919060010190610715565b5b50905061073e9190610742565b5090565b5b8082111561075b576000816000905550600101610743565b5090565b600061077261076d84610bf2565b610bc1565b90508281526020810184848401111561078a57600080fd5b610795848285610cd6565b509392505050565b600082601f8301126107ae57600080fd5b81356107be84826020860161075f565b91505092915050565b6000813590506107d681610db9565b92915050565b6000602082840312156107ee57600080fd5b600082013567ffffffffffffffff81111561080857600080fd5b6108148482850161079d565b91505092915050565b60006020828403121561082f57600080fd5b600061083d848285016107c7565b91505092915050565b60006108528383610a7a565b905092915050565b61086381610c88565b82525050565b61087281610c88565b82525050565b600061088382610c32565b61088d8185610c55565b93508360208202850161089f85610c22565b8060005b858110156108db57848403895281516108bc8582610846565b94506108c783610c48565b925060208a019950506001810190506108a3565b50829750879550505050505092915050565b6108f681610cc4565b82525050565b600061090782610c3d565b6109118185610c66565b9350610921818560208601610ce5565b61092a81610da8565b840191505092915050565b600061094082610c3d565b61094a8185610c77565b935061095a818560208601610ce5565b61096381610da8565b840191505092915050565b600061097b601783610c77565b91507f4f6e6c79206f776e65722063616e2077697468647261770000000000000000006000830152602082019050919050565b60006109bb602f83610c77565b91507f436f6e747261637420646f6573206e6f74206861766520656e6f75676820626160008301527f6c616e636520746f2072657761726400000000000000000000000000000000006020830152604082019050919050565b6000610a21602983610c77565b91507f4d7573742073656e6420736f6d6520657468657220746f2066756e642074686560008301527f20636f6e747261637400000000000000000000000000000000000000000000006020830152604082019050919050565b6000604083016000830151610a92600086018261085a565b5060208301518482036020860152610aaa82826108fc565b9150508091505092915050565b6000602082019050610acc6000830184610869565b92915050565b6000604082019050610ae76000830185610869565b8181036020830152610af98184610935565b90509392505050565b60006020820190508181036000830152610b1c8184610878565b905092915050565b6000602082019050610b3960008301846108ed565b92915050565b60006020820190508181036000830152610b598184610935565b905092915050565b60006020820190508181036000830152610b7a8161096e565b9050919050565b60006020820190508181036000830152610b9a816109ae565b9050919050565b60006020820190508181036000830152610bba81610a14565b9050919050565b6000604051905081810181811067ffffffffffffffff82111715610be857610be7610d79565b5b8060405250919050565b600067ffffffffffffffff821115610c0d57610c0c610d79565b5b601f19601f8301169050602081019050919050565b6000819050602082019050919050565b600081519050919050565b600081519050919050565b6000602082019050919050565b600082825260208201905092915050565b600082825260208201905092915050565b600082825260208201905092915050565b6000610c9382610c9a565b9050919050565b600073ffffffffffffffffffffffffffffffffffffffff82169050919050565b6000819050919050565b6000610ccf82610cba565b9050919050565b82818337600083830152505050565b60005b83811015610d03578082015181840152602081019050610ce8565b83811115610d12576000848401525b50505050565b60006002820490506001821680610d3057607f821691505b60208210811415610d4457610d43610d4a565b5b50919050565b7f4e487b7100000000000000000000000000000000000000000000000000000000600052602260045260246000fd5b7f4e487b7100000000000000000000000000000000000000000000000000000000600052604160045260246000fd5b6000601f19601f8301169050919050565b610dc281610cba565b8114610dcd57600080fd5b5056fea26469706673582212204f006b75fdf20bb38c04924c79581430686e4baf1ce603ed4f3c38c092ef92c564736f6c63430008000033",
  "immutableReferences": {},
  "source": "// SPDX-License-Identifier: MIT\r\npragma solidity ^0.8.0;\r\n\r\ncontract Messaging {\r\n    struct Message {\r\n        address sender;\r\n        string content;\r\n    }\r\n\r\n    Message[] public messages;\r\n    address public owner;\r\n\r\n    event MessageSent(address indexed sender, string content);\r\n    event UserRewarded(address indexed user, uint256 amount);\r\n\r\n    constructor() {\r\n        owner = msg.sender;\r\n    }\r\n\r\n    function sendMessage(string memory _content) public payable {\r\n        messages.push(Message(msg.sender, _content));\r\n        emit MessageSent(msg.sender, _content);\r\n\r\n        if (bytes(_content).length == 2) {\r\n            require(address(this).balance >= 1 ether, \"Contract does not have enough balance to reward\");\r\n            payable(msg.sender).transfer(1 ether);\r\n            emit UserRewarded(msg.sender, 1 ether);\r\n        }\r\n    }\r\n\r\n    function getMessages() public view returns (Message[] memory) {\r\n        return messages;\r\n    }\r\n\r\n    function fundContract() public payable {\r\n        require(msg.value > 0, \"Must send some ether to fund the contract\");\r\n    }\r\n\r\n    function withdraw() public {\r\n        require(msg.sender == owner, \"Only owner can withdraw\");\r\n        payable(owner).transfer(address(this).balance);\r\n    }\r\n}\r\n",
  "sourcePath": "C:\\Users\\angel\\eth-messaging-app\\contracts\\Messaging.sol",
  "compiler": {
    "name": "solc",
    "version": "0.8.0+commit.c7dfd78e.Emscripten.clang"
  },
  "schemaVersion": "3.4.16",
  "updatedAt": "2024-06-05T22:06:40.886Z",
  "networkType": "ethereum",
  "devdoc": {
    "kind": "dev",
    "methods": {},
    "version": 1
  },
  "userdoc": {
    "kind": "user",
    "methods": {},
    "version": 1
  }
}